:020000040800F2
:1000000008070020391400084111000843110008B6
:10001000471100084B1100084F11000800000000B4
:100020000000000000000000000000005311000864
:100030005511000800000000571100085911000870
:1000400053140008531400085314000853140008F4
:1000500053140008531400085314000853140008E4
:1000600053140008531400085314000853140008D4
:1000700053140008531400085314000853140008C4
:1000800053140008531400085314000853140008B4
:1000900053140008531400085314000853140008A4
:1000A0005314000853140008531400085314000894
:1000B00053140008DF1100085314000853140008FB
:1000C0005314000853140008531400085314000874
:1000D0005314000853140008531400085B1100085F
:1000E0005314000853140008531400085314000854
:1000F0005314000853140008531400085314000844
:100100005314000853140008531400085314000833
:100110007511000853140008531400085314000804
:100120005314000853140008531400085314000813
:1001300000F002F800F03AF80AA090E8000C8244BF
:100140008344AAF10107DA4501D100F02FF8AFF29C
:10015000090EBAE80F0013F0010F18BFFB1A43F0A5
:10016000010318477C2D00009C2D0000103A24BF8D
:1001700078C878C1FAD8520724BF30C830C144BF0C
:1001800004680C607047000000230024002500264E
:10019000103A28BF78C1FBD8520728BF30C148BFEA
:1001A0000B6070471FB51FBD10B510BD02F068FE93
:1001B0001146FFF7F7FF00F00FF802F086FE03B4D8
:1001C000FFF7F2FF03BC00F099FE000030BF72B6EB
:1001D00062B680F30888704770B500F079FB0020A4
:1001E00000F0ABFC4621084600F09FFA40F2DC50DC
:1001F00000F0F8FC31E24FF48061F74801F09DFA1D
:10020000012829D14102F44801F097FA012823D1AD
:10021000C102F14801F091FA01281DD100BFEF4859
:10022000007818B9012000F0F6FA16E2EB480078E1
:10023000292803D1002000F0EEFA13E2E748047801
:10024000E01704EB907080100A2190FBF1F0C5B22A
:10025000284600F0E0FA00E24FF48061DE4801F049
:100260006CFA01287ED14102DB4801F066FA0028D1
:10027000F8D14FF40061D84801F05FFA0128F1D1BC
:10028000D6490878C11700EB91718910A0EB810164
:10029000032907D1D249097821B14621084600F047
:1002A00044FA03E05A21084600F03FFACBE000BFD1
:1002B000CB490978D1BBC9490878C11700EB9171C6
:1002C0008910A0EB8101012931D10020C5490870B6
:1002D000C54800784E286BD0C04800782928FAD04D
:1002E000C148007847280AD0522811D1BF48007869
:1002F000401CBE4908700120B949087008E0BC489C
:100300000078401CBA4908700220B549087000BF47
:1003100000BF0021084600F008FA012000F00DFCA3
:10032000052000F07BFC00F0F5FBA0E0FFE7AC4906
:100330000978E1B3A9490878C11700EB91718910D8
:10034000A0EB810103293DD1A8480078401CA949B0
:10035000085C012803D1A248007801281ED0A448D7
:10036000007800E084E00830A249085C012806D14A
:100370009B480078022802D19A48007870B19C48C6
:100380000078401C9B49085C01281AD194480078E9
:10039000022816D193480078022812D1002108467D
:1003A00000F0C3F9022000F0C8FB052001E009E0DD
:1003B00048E000F033FC00F0ADFB002088490870F5
:1003C00055E040E08649097879B984490878C11731
:1003D00000EB91718910A0EB8101022905D17F48C2
:1003E0000078401E7D4908702CE07D480078022886
:1003F0000ED17A480578E81705EB90708010A5EBD0
:100400008000012804D12021734801F096F9A8B199
:1004100073480078B0B971480478E01704EB907025
:100420008010A4EB800003280CD120216A4801F041
:1004300084F938B9694800781D2803DD012069492D
:100440000870ECE600BF4FF48061634801F075F975
:1004500001280CD14102604801F06FF938B94FF41E
:1004600000615D4801F069F901283FF420AFF4E034
:100470004FF48061584801F060F940BB4FF40071BF
:10048000554801F05AF910BB4FF40061524801F091
:1004900054F901281BD146213C2000F046F900E028
:1004A00006E74FF480614C4801F047F90028DED19F
:1004B0004FF40071484801F040F90028D7D14FF4BB
:1004C0000061454801F039F9012858D1E8E74FF4B7
:1004D0008061414801F031F9012825D141023E48AF
:1004E00001F02BF900BB4FF400613B4801F025F906
:1004F000D0B93C21462000F018F900E0D8E64FF4CE
:100500008061354801F019F9012838D1410232489B
:1005100001F013F9002832D14FF400612E4801F0A8
:100520000CF900282BD1E9E74FF480612A4801F04B
:1005300004F928BB4FF40071274801F0FEF80128A8
:100540001ED1C102244801F0F8F8012818D1462133
:100550001E2000F0EAF800BF4FF480611E4801F051
:10056000ECF860B94FF400711B4801F0E6F801287F
:1005700073D1C102184801F0E0F80128ECD06CE01A
:100580004FF48061144801F0D8F8012834D14102B9
:10059000114801F0D2F801282ED1C1020E4801F015
:1005A000CCF8C0B91E21462000F0BFF800BF4FF4C0
:1005B0008061094801F0C1F801284ED14102064886
:1005C00001F0BBF8012848D1C102034801F0B5F899
:1005D0000028ECD041E00FE00020014000000020A6
:1005E000030000200400002007000020010000207C
:1005F00002000020940000204FF48061254801F0A3
:100600009CF850BB4FF40071224801F096F820BBD3
:100610004FF400611F4801F090F8F0B946210846F8
:1006200000F083F81C480078012802D102201A4902
:10063000087000BF4FF48061164801F07EF860B981
:100640004FF40071134801F078F830B94FF40061AD
:10065000104801F072F80028ECD0104800782A28E1
:100660007FF7C9AD00BF46210A2000F05EF840F2D6
:10067000145000F0B7FA4621084600F056F840F250
:10068000145000F0AFFA0021084600F04EF80020A8
:1006900070BD000000200140040000200000002088
:1006A00008B50121402001F071FA10208DF80300F7
:1006B00003208DF802000120ADF8000069467C4857
:1006C00000F0A8FF0220ADF800006946784800F06D
:1006D000A1FF0420ADF800006946754800F09AFFBC
:1006E0000820ADF800006946714800F093FF102023
:1006F000ADF8000069466E4800F08CFF4FF4807042
:10070000ADF8000069466A4800F084FF4020ADF86B
:1007100000006946664800F07DFF8020ADF80000CB
:100720006946634800F076FF08BD70B504460D4683
:10073000002C0FDD00205F49086001205E49C1F8F0
:10074000A00100205B490839086001205A49C1F81E
:100750008C010FE001205749086000205649C1F87C
:10076000A001012053490839086000205249C1F80E
:100770008C016442002D10DD00204E4910390860C4
:1007800001204D49C1F8840100204A490831086020
:1007900001204949C1F89C0110E001204549103968
:1007A000086000204449C1F8840101204149083112
:1007B000086000204049C1F89C016D4205EBC5006E
:1007C00000EB05104FF6FF7202EA80013B4802F091
:1007D0000DFB04EBC40000EB04104FF6FF7202EABD
:1007E0008001364802F004FB04EBC40000EB041067
:1007F0004FF6FF7202EA8001304802F0FBFA05EB87
:10080000C50000EB05104FF6FF7202EA80012B488D
:1008100002F0F2FA70BD70B5064646244625012E58
:100820000CD100BF0A3D29462046FFF77EFF642019
:1008300000F0D8F960428542F4DC0BE000BF0A3CCE
:1008400029462046FFF771FF642000F0CBF968428B
:100850008442F4DC4FF4C87000F0C4F90FE0462C79
:1008600001DA641D04E0462D01DA6D1D00E010E0A0
:1008700029462046FFF759FF962000F0B3F960198A
:100880008C2806DA4FF400710D4800F056FF01285D
:10089000E5D000BF0B480078401C0A4908700020D2
:1008A0000949088000F022F901200849087070BD4C
:1008B000001801409001234200002342002C014017
:1008C0000020014000000020080000200A00002055
:1008D00010B5092000F0B9FA482000F04BF900F0FB
:1008E0001BFB00F07BFB4FF4A06000F0C5FDFFF7A1
:1008F000D7FE00F01BF8012142F2107000F044F81E
:100900000021094802F072FA0021074802F070FA4B
:100910000021054802F06EFA0021034802F06CFA4B
:1009200000F0B8F810BD0000002C014008B501210E
:10093000080201F02BF904208DF8030003208DF844
:1009400002002020ADF8000069460E4800F062FE6B
:100950004FF40070ADF8000069460A4800F05AFEF6
:100960004FF48060ADF800006946064800F052FE82
:100970004FF40060ADF800006946024800F04AFEFE
:1009800008BD00000020014030B589B005460C4686
:100990000121C80201F0FAF80121412001F0F6F826
:1009A0000121574800F007FF18208DF8230003208D
:1009B0008DF822004FF40070ADF8200008A95148CE
:1009C00000F028FE4FF40060ADF8200008A94D4863
:1009D00000F020FE4FF40050ADF8200008A949486F
:1009E00000F018FE4FF48040ADF8200008A94548FB
:1009F00000F010FE0020ADF81A00ADF81600ADF8BA
:100A00001850ADF8144005A93F4801F0FBFB6020E9
:100A1000ADF804000120ADF806000420ADF8080090
:100A20000020ADF80C0001A9374801F028FC01A90D
:100A3000354801F066FC01A9334801F0AFFC01A97B
:100A4000314801F0F6FC08212F4802F067F8082130
:100A50002D4802F06CF808212B4802F075F80821A7
:100A6000294802F07AF80121274802F027F80121ED
:100A7000254801F02FFF0021234802F0B3F901229D
:100A80001146214801F035FF01211F4801F016FFF2
:100A900009B030BD1FB50121022001F084F840F2F9
:100AA000E730ADF808004720ADF804000020ADF8AD
:100AB0000A00ADF8060001A9144801F0A3FB0122C9
:100AC0001146124801F015FF1D208DF8000001208D
:100AD0008DF801008DF802008DF80300684600F0E3
:100AE000D0FC0121094801F0E9FE1FBD002004E00F
:100AF0000021074A1154411CC8B20F28F8DB704787
:100B0000C000160000180140002C01400004004005
:100B10009400002000200DE000BF1349098801F077
:100B200040010029F9D01149095C0F4A121D1180BA
:100B3000411CC8B20428EFDB70470146002010E0DA
:100B400000BF094A128802F04002002AF9D0C1EB26
:100B5000C102074B1A44125C034B1B1D1A80421C36
:100B6000D0B20728ECDB7047004800400B000020A3
:100B7000100000204FF0E021096921F004014FF03E
:100B8000E0221161C21700EB5272C2F3C7022A4B76
:100B90001A701946097801EB4102C2EBC1114FF6F8
:100BA000FF7202EAC101254A118070470146224ABC
:100BB00012784A434FF0E0235A6100229A610122E1
:100BC0001A6100BF4FF0E022106900F001021AB173
:100BD00000F48032002AF5D000224FF0E0231A61A1
:100BE0009A6170470146154A12884A434FF0E02344
:100BF0005A6100229A6101221A6100BF4FF0E0227F
:100C0000106900F001021AB100F48032002AF5D018
:100C100000224FF0E0231A619A61704730B5044614
:100C2000002505E04FF47A70FFF7DCFF681CC5B2C1
:100C3000A542F7DB30BD0000640000206600002004
:100C4000A34A0A400243A34B1A6070470146072398
:100C500023EA010212029F4B1B1D18684FF6FF0387
:100C600018409D4B184310439A4B1B1D186070474A
:100C70002DE9F0410746884614461D462846FFF7F1
:100C8000E5FFC5F1040007FA00F60F20284100EA4D
:100C90000800064306F00F06E21704EBD262521179
:100CA000920002F1E022D2F800212146E31704EB82
:100CB000D3635B11A4EB431C012303FA0CF31A4327
:100CC0002046E31704EBD3635B119B0003F1E023A1
:100CD000C3F800218148005D40EA06107F490855AD
:100CE000BDE8F08170B504460B46CE1701EB967651
:100CF000C6F38700CE1701EB9676B610A1EB8606F9
:100D0000B606350E764B9B6943F00103744EB36112
:100D10004FEAB63353F820300F26AE40B343714E3E
:100D200046F82030334653F8203004FA05F61E43C7
:100D30006C4B43F820606C4B1B6801268E4033439C
:100D4000694E336002F0010343B1674B0C331B68FB
:100D500001268E403343644E0C36336002F00203AA
:100D600043B1614B08331E6801238B401E435E4B29
:100D700008331E6070BD00B5002059490861C86085
:100D80001420486100208861C8610846006840F06E
:100D900001000860084640685449084050494860CE
:100DA00008460068524908404D49086008460068F6
:100DB00020F4802008600846406820F4FE00486067
:100DC0000020886000214FF00060FFF739FF00BD70
:100DD00010B540480830006840F004003D49083133
:100DE00008603F48C06940F080503D49C8614148B3
:100DF000406840F480703F4948600846006840F011
:100E0000040008600846006840F002000860FFF730
:100E1000DDF910BD3048001D2E49091D08607047DE
:100E2000014649062E4A926942F001022C4B9A6112
:100E30002C4A083A526822F0E0622A4B083B5A607A
:100E40001A4652680A435A60704730B50446002576
:100E5000FFF791FF2248006840F480302049086085
:100E600000BF1F480068400C0028FAD04FF4806093
:100E70001B494860A01EC4B20846406840EA84404E
:100E800048600846406840F4803048601A4800686E
:100E900040F03200184908601148006840F0807046
:100EA0000F49086000BF0E480068400E0028FAD0C5
:100EB0000B48406840F002000949486005E00848D6
:100EC0004068C0F3870505F00305022DF7D130BD5A
:100ED00080FFFF1F08ED00E00000FA0500E400E0DD
:100EE0000010024008000140000401400000FFF82B
:100EF000FFFFF6FE007000400020024000BF704778
:100F000000BF884A128802F04002002AF9D0C2B21B
:100F1000844B1B1D1A80704700B587B0012108461D
:100F200000F034FE0121202000F030FE0121880471
:100F300000F039FE01217C4800F03DFC7B4800F0C8
:100F400089FE4FF48070ADF8180003208DF81A0068
:100F500018208DF81B0006A9754800F05BFB4FF4C4
:100F60000070ADF8180003208DF81A0004208DF8E9
:100F70001B0006A96E4800F04DFB4FF4165002907E
:100F80000020ADF80C00ADF80E00ADF81000ADF883
:100F900014000C20ADF8120002A9644800F09DFE78
:100FA0004FF4A06000F068FA27208DF804000220BA
:100FB0008DF805008DF8060001208DF8070001A8C6
:100FC00000F05FFA0121594800F013FF012240F2BE
:100FD0002551564800F019FF07B000BD00B587B095
:100FE0004FF4A06000F048FA0121302000F0CEFD5F
:100FF0000121084600F0CAFD0121C80400F0D3FD1C
:101000004C4800F027FE4FF48060ADF81800032034
:101010008DF81A0018208DF81B004FF40060ADF811
:10102000180003208DF81A0004208DF81B0006A973
:10103000414800F0EFFA4FF4E13002900020ADF8A3
:101040000C00ADF80E00ADF81000ADF814000C2047
:10105000ADF8120002A9374800F03FFE34208DF8A9
:10106000040002208DF8050001208DF806008DF89F
:10107000070001A800F005FA01212E4800F0B9FE92
:10108000012240F225512B4800F0BFFE0121080546
:1010900000F089FD294800F0DDFD4FF48050ADF8E7
:1010A000180003208DF81A0018208DF81B0006A9DF
:1010B000214800F0AFFA0420ADF818008DF81B00AD
:1010C00006A91B4800F0A6FA4FF4E1300290002078
:1010D000ADF80C00ADF80E00ADF81000ADF814003E
:1010E0000C20ADF8120002A9144800F0F6FD3520DE
:1010F0008DF8040002208DF805008DF8060001200F
:101100008DF8070001A800F0BCF901210B4800F0A0
:1011100070FE012240F22551084800F076FE07B02B
:1011200000BD0000003801403000140000480040BD
:1011300000140140004C00400010014000500040ED
:10114000704700BFFEE700BFFEE700BFFEE700BF3D
:10115000FEE7704770477047704710B540F2255161
:10116000344800F037FF20B13248001D0088C4B277
:1011700000BF10BD10B540F225512F4800F02AFFE6
:1011800040B32D48001D00882C492D4A1278885400
:101190002B480078401C2A4908700846007801282E
:1011A00001DD0020087025480078522803D023482C
:1011B0004078522803D15220224908700EE01F487F
:1011C0000078472803D01D484078472803D147209E
:1011D0001C49087002E04E201A49087010BD10B575
:1011E0000121194801F033FE18B30121164801F01E
:1011F0003FFE16480088401C1449088008460088B5
:10120000B0F5487F15DB0020088011480078401CAD
:101210000F4908700F48807B012805D1FFF766FC55
:1012200000200B49087004E001200A49084A12789E
:10123000885410BD00480040004C004005000020CC
:101240006800002007000020000400400800002083
:101250000A000020940000200CB5002001900090AE
:101260006C48006840F480306A49086000BF6948F3
:10127000006800F4003000900198401C0190009834
:1012800018B90198B0F5A06FF1D16248006800F478
:10129000003010B10120009001E000200090009883
:1012A000012843D15C48006840F010005A490860AA
:1012B0000846006820F0030008600846006840F017
:1012C0000200086053484068524948600846406838
:1012D00048600846406840F48060486008464068BE
:1012E00020F47C1048600846406840F4E8104860EC
:1012F0000846006840F08070086000BF45480068FC
:1013000000F000700028F9D04248406820F0030047
:10131000404948600846406840F00200486000BF0D
:101320003C48406800F00C000828F9D10CBD10B50D
:10133000FFF792FF10BD10B53648006840F001007D
:1013400034490860084640683449084031494860DB
:1013500008460068324908402E490860084600687F
:1013600020F4802008600846406820F4FE004860B1
:101370004FF41F008860FFF7DAFF4FF00060294943
:10138000086010BD10B5002100200022214B5B68D1
:1013900003F00C0121B1042906D0082928D107E067
:1013A000214B224C236027E01F4B204C236023E07D
:1013B000184B5B6803F47010164B5B6803F48032C3
:1013C000022303EB904022B9194B4343174C23608F
:1013D0000DE0104B5B6803F4003323B1144B43431F
:1013E000124C236003E0104B4343104C236003E096
:1013F0000D4B0E4C236000BF00BF064B5B68C3F370
:1014000003130C4CE15C094B1B68CB40074C236079
:1014100010BD000000100240002002400000FFF854
:10142000FFFFF6FE08ED00E000127A006C000020DD
:1014300000093D0070000020094880470948004726
:10144000FEE7FEE7FEE7FEE7FEE7FEE7FEE7FEE774
:10145000FEE7FEE704480549054A064B70470000D1
:101460003713000831010008080100200807002098
:10147000080300200803002031490143314A11606C
:10148000704770B5002100230F22C47804B32D4C9F
:10149000246804F4E064C4F5E064210AC1F10403A3
:1014A000CA40447804FA03F18478144021430901C6
:1014B000254C0678A155047804F01F050124AC40A2
:1014C00005786D11AD0005F1E025C5F8004109E092
:1014D000047804F01F050124AC401C4D06787611F9
:1014E00045F8264070BD1A4A0A400243154B1B1F9F
:1014F0001A60704739B1134A121D12680243114B2A
:101500001B1D1A6006E00F4A121D126882430D4B24
:101510001B1D1A607047042808D14FF0E0210969AB
:1015200041F004014FF0E022116107E04FF0E021AB
:10153000096921F004014FF0E022116170470000B9
:101540000000FA050CED00E000E400E080E100E0BE
:1015500080FFFF1F10B50446CC48844208D101210A
:10156000042000F02DFB0021042000F029FB46E0C0
:10157000C748844208D10121082000F021FB002146
:10158000082000F01DFB3AE0C248844208D1012146
:10159000102000F015FB0021102000F011FB2EE0C0
:1015A000BD48844208D10121202000F009FB002120
:1015B000202000F005FB22E0B848844208D1012138
:1015C000402000F0FDFA0021402000F0F9FA16E07A
:1015D000B348844208D10121802000F0F1FA0021B3
:1015E000802000F0EDFA0AE0AE48844207D10121E4
:1015F000801500F0E5FA0021A01500F0E1FA10BD19
:1016000010B50121084600F0DBFA0021012000F0AE
:10161000D7FA10BD2DE9F041024600250026002032
:1016200000230024002791F803C00CF00F0591F867
:1016300003C00CF0100CBCF1000F03D091F802C0F5
:101640004CEA050591F800C0BCF1000F31D01468D8
:1016500000202BE04FF0010C0CFA00F3B1F800C0B1
:101660000CEA03069E4220D183004FF00F0C0CFAC7
:1016700003F7BC4305FA03FC4CEA040491F803C0E9
:10168000BCF1280F06D14FF0010C0CFA00FCC2F897
:1016900014C00AE091F803C0BCF1480F05D14FF027
:1016A000010C0CFA00FCC2F810C0401C0828D1D371
:1016B0001460B1F800C0BCF1FF0F34DD54680020A5
:1016C0002EE000F1080C4FF0010808FA0CF3B1F815
:1016D00000C00CEA03069E4221D183004FF00F0C9C
:1016E0000CFA03F7BC4305FA03FC4CEA040491F836
:1016F00003C0BCF1280F05D100F1080C08FA0CF862
:10170000C2F8148091F803C0BCF1480F07D100F172
:10171000080C4FF0010808FA0CF8C2F81080401CC1
:101720000828CED35460BDE8F0814FF6FF710180E8
:10173000022181700421C170704702460020936825
:101740000B400BB1012000E0002070470146886883
:1017500080B2704702460020D3680B400BB10120D5
:1017600000E0002070470146C86880B27047016100
:101770007047416170470AB1016100E04161704703
:10178000C16070474FF480320A4382618161826197
:1017900082698269704702460020434B18684FF601
:1017A0008073184040EA021008433F4B18607047AE
:1017B0003E49C8617047F0B50A4600230024002165
:1017C000002500F00046B6F1004F02D1364EF16917
:1017D00001E0354E7168C0F3034583B200F4401652
:1017E000B6F5401F08D121F070612F4E766826F0C3
:1017F00070662D4F7E6012E000F48016B6F5801FF3
:1018000006D1032606FA05F4A14341F0706106E013
:10181000460D360103FA06F6B14341F0706122B17C
:10182000460D360103FA06F6314300F00046B6F1E4
:10183000004F02D11C4EF16101E01B4E7160F0BD02
:1018400030B500228B071C0F0F2303FA04F2164B4E
:1018500008338C1053F824309343134C08348D1004
:1018600044F8253023468C1053F824308C07240F7D
:1018700000FA04F423430C4C08348D1044F825304E
:1018800030BD0A49DC3108607047000000080140A3
:10189000000C0140001001400014014000180140FC
:1018A000001C0140002001400000014000002042D7
:1018B000DF48006840F00100DD49086008464068E4
:1018C000DC490840DA49486008460068DA490840BF
:1018D000D74908600846006820F480200860084660
:1018E000406820F4FE0048604FF41F008860704795
:1018F000CF49096821F48031CD4A11601146096849
:1019000021F480211160B0F5803F03D0B0F5802F25
:101910000ED106E0C649096841F48031C44A11601D
:1019200007E0C349096841F4A021C14A116000E001
:1019300000BF00BF704710B5014600220023002001
:101940004A11012A02D1BA4C236806E0022A02D1C8
:10195000B74C236A01E0B64C636A01F01F02012410
:1019600094401C400CB1012000E0002010BD38B5AF
:10197000002000900024002500BF3120FFF7DBFF8E
:1019800005460098401C00900098B0F5A06F01D06B
:10199000002DF2D03120FFF7CEFF08B1012400E086
:1019A0000024204638BD01460020A14A106820F0DE
:1019B000F80040EAC10010607047A0490860704715
:1019C000024600209A4B586820F47C1042EA01033A
:1019D0001843974B5860704798490866704701460E
:1019E0000020934A506820F003000843506070477D
:1019F0008F48406800F00C007047014600208C4A78
:101A0000506820F0F0000843506070470146002005
:101A1000874A506820F4E0600843506070470146F0
:101A20000020834A506820F4605040EAC1005060B2
:101A3000704729B17E4A527A02437D4B5A7204E0C4
:101A40007B4A527A82437A4B5A7270477B49D8312B
:101A50000860704701460020754A506820F44040F5
:101A60000843506070470021714A20321170704A5B
:101A700082F82010012802D004280AD104E00121B4
:101A80006B4A2032117005E00521694A203211703D
:101A900000E000BF00BF70476949086070476449B3
:101AA000096A0143624A1162704765494439086016
:101AB000704730B500210022002400235C4D6D6882
:101AC00005F00C0121B1042905D0082923D105E036
:101AD0005C4D056022E05B4D05601FE0544D6D6874
:101AE00005F47012524D6D6805F48034022505EB43
:101AF00092421CB9544D554305600BE04C4D6D6846
:101B000005F400351DB1504D5543056002E04D4DC3
:101B10005543056002E04B4D056000BF00BF444DDA
:101B20006D6805F0F0010909484D6B5C0568DD4002
:101B300045603F4D6D6805F4E061090A434D6B5CFB
:101B40004568DD4085603A4D6D6805F46051C90A0D
:101B50003E4D6B5C4568DD40C560354D6D6805F4F4
:101B60004041890B3A4D6B5CC568B5FBF3F50561E7
:101B700030BD29B12E4A526902432D4B5A6104E00F
:101B80002B4A526982432A4B5A61704729B1284A2D
:101B900092690243264B9A6104E0254A9269824386
:101BA000234B9A61704729B1214AD2690243204BE5
:101BB000DA6104E01E4AD26982431D4BDA61704744
:101BC00029B11B4AD2680243194BDA6004E0184A73
:101BD000D2688243164BDA60704729B1144A126901
:101BE0000243134B1A6104E0114A12698243104BFD
:101BF0001A61704712494039086070470F49C8643C
:101C000070470B49C87170470948406A40F08070BE
:101C100007494862704701460020054A92680A4019
:101C20000AB1012000E00020704701498872704726
:101C3000001002400000FFF8FFFFF6FE00004242E5
:101C40008004424200127A0000093D00800000201A
:101C50009000002010B50446FB48844209D10121C0
:101C60008803FFF7ADFF00214FF48040FFF7A8FF86
:101C700032E0F648844209D101214804FFF7ADFF64
:101C800000214FF40030FFF7A8FF25E0F048844220
:101C900009D101218804FFF7A0FF00214FF4802023
:101CA000FFF79BFF18E0EB48844209D10121C804EB
:101CB000FFF793FF00214FF40020FFF78EFF0BE0AA
:101CC000E548844208D101210805FFF786FF00217D
:101CD0004FF48010FFF781FF10BD2DE9F04786B06B
:101CE00005460E460024A24600BFA1460027B08943
:101CF00000B100BF2F462C8A4CF6FF700440F088DC
:101D000004432C82AC894EF6F3100440B08831892C
:101D10000843718908430443AC81AC8A4FF6FF4005
:101D20000440B0890443AC8201A8FFF7C2FEC64854
:101D3000874202D1DDF810A001E0DDF80CA0A889EF
:101D400000F4004040B10AEBCA0000EB0A10316811
:101D50004900B0FBF1F807E00AEBCA0000EB0A10FB
:101D600031688900B0FBF1F86420B8FBF0F00401A1
:101D70002009642101FB1089A88900F4004040B1CA
:101D8000322000EBC900B0FBF1F000F00700044383
:101D900008E0322000EB09106421B0FBF1F000F004
:101DA0000F0004432C8106B0BDE8F0874FF41651B4
:101DB000016000218180C18001810C2141810021CD
:101DC0008181704710B502460020108A4FF2FF0350
:101DD00018400B884C8823438C882343CC882343AA
:101DE0001843108210BD0021018041808180C18094
:101DF000704721B1828942F40052828104E08289D5
:101E00004DF6FF731A4082817047F0B503460024F7
:101E100000260025002040F66A17B94200D100BF15
:101E20001846C1F3421401F01F06012707FA06F510
:101E3000012C01D10C3004E0022C01D1103000E063
:101E400014301AB107682F43076002E00768AF43F8
:101E50000760F0BD1AB1838A0B43838202E0838A54
:101E60008B4383827047028A4FF6F0731A400282D6
:101E7000028A0A430282704782894FF2FF731A4036
:101E8000828182890A438281704721B1828942F02E
:101E90000202828104E082894FF6FD731A4082813A
:101EA0007047028A4FF6DF731A400282028A0A43A1
:101EB0000282704721B1028A42F48042028204E029
:101EC000028A4BF6FF731A4002827047C1F3080280
:101ED0008280704701468888C0F308007047818976
:101EE00041F0010181817047028BD2B20283028BE3
:101EF00042EA012202837047028B02F47F4202838E
:101F0000028B0A430283704721B1828A42F0200289
:101F1000828204E0828A4FF6DF731A408282704721
:101F200021B1828A42F01002828204E0828A4FF656
:101F3000EF731A408282704721B1828A42F0080210
:101F4000828204E0828A4FF6F7731A4082827047D9
:101F500021B1828942F40042828103E08289C2F386
:101F60000E028281704721B1828A42F4006282822D
:101F700004E0828A4FF2FF731A4082827047828A9D
:101F80004FF6FB731A408282828A0A43828270472C
:101F900021B1828A42F00202828204E0828A4FF6F4
:101FA000FD731A408282704702460020B1F5007F1F
:101FB00000D100BF13880B400BB1012000E00020CE
:101FC000704701F40072B2F5007F00D100BFCA4330
:101FD0000280704770B502460024002300250020CF
:101FE00040F66A16B14200D100BFC1F3421501F0BC
:101FF0001F03012606FA03F3012D02D1968933400F
:1020000006E0022D02D1168A334001E0968A334061
:102010000C12012606FA04F41688344013B10CB1F0
:10202000012000E0002070BD10B50022002340F622
:102030006A14A14200D100BF0A1201249440A3B245
:10204000DC43048010BD0000003801400044004023
:1020500000480040004C00400050004010B50446CD
:10206000FE48844208D10121C014FFF7A9FD0021D8
:10207000E014FFF7A5FDC4E0B4F1804F08D10121C1
:102080000846FFF7AAFD00210120FFF7A6FDB8E0F2
:10209000F348844208D101210220FFF79EFD002170
:1020A0000220FFF79AFDACE0EE48844208D10121FE
:1020B0000420FFF792FD00210420FFF78EFDA0E031
:1020C000E948844208D101210820FFF786FD00215C
:1020D0000820FFF782FD94E0E448844208D1012102
:1020E0001020FFF77AFD00211020FFF776FD88E031
:1020F000DF48844208D101212020FFF76EFD002136
:102100002020FFF76AFD7CE0DA48844208D10121F3
:102110004014FFF755FD00216014FFF751FD70E0FA
:10212000D548844209D10121C804FFF749FD0021A7
:102130004FF40020FFF744FD63E0D048844209D10A
:1021400001210805FFF73CFD00214FF48010FFF747
:1021500037FD56E0CA48844209D101214805FFF7FE
:102160002FFD00214FF40010FFF72AFD49E0C5487C
:10217000844208D101214020FFF72FFD002140209B
:10218000FFF72BFD3DE0C048844208D101218020AB
:10219000FFF723FD00218020FFF71FFD31E0BB4842
:1021A000844208D101218015FFF717FD0021A015F9
:1021B000FFF713FD25E0B648844209D10121080448
:1021C000FFF7FEFC00214FF48030FFF7F9FC18E028
:1021D000B048844209D101214804FFF7F1FC0021F5
:1021E0004FF40030FFF7ECFC0BE0AB48844208D121
:1021F00001218804FFF7E4FC00214FF48020FFF761
:10220000DFFC10BD00220288944B98420ED0994BFF
:1022100098420BD0B0F1804F08D0914B984205D036
:10222000904B984202D0904B984204D14FF68F7356
:102230001A404B881A438D4B984207D08C4B9842DA
:1022400004D04FF6FF431A40CB881A4302808B8894
:1022500083850B880385814B98420BD0854B984230
:1022600008D08B4B984205D08A4B984202D08A4BBB
:10227000984201D10B7A038601238382704770B59F
:10228000002400220023058C4FF6FE76354005849D
:10229000028C8388048B4FF68F752C40B51E2C4022
:1022A0000D882C43751E2A400D892A434D882A43E8
:1022B0006A4DA8420BD06F4DA84208D0744DA84279
:1022C00005D0744DA84202D0734DA84213D14FF6E9
:1022D000F7752A404D892A434FF6FB752A408D88B1
:1022E0002A434FF6FF652B404FF6FF552B408D8953
:1022F0002B43CD892B4383800483CD88858602843C
:1023000070BD70B5002400220023058C4FF6EF76D7
:1023100035400584028C8388048B48F6FF752C4079
:102320004FF6FF452C400D884FF6FF7606EA05254F
:102330002C434FF6DF752A400D8906EA05152A431E
:102340004D8806EA05152A43444DA84202D0494D5E
:10235000A8421DD14FF67F752A404D894FF6FF7672
:1023600006EA05152A434FF6BF752A408D8806EA0E
:1023700005152A434FF6FF352B404FF2FF752B40D2
:102380008D8906EA85052B43CD8906EA85052B4311
:1023900083800483CD880587028470BD70B50024D6
:1023A00000220023058C4FF6FF6635400584028C21
:1023B0008388848B4FF68F752C404FF6FC752C402C
:1023C0000D882C434FF6FF552A400D894FF6FF76B6
:1023D00006EA05252A434D8806EA05252A431F4DAE
:1023E000A84202D0234DA8421DD14FF2FF752A40CA
:1023F0004D894FF6FF7606EA05252A434FF6FF354D
:102400002A408D8806EA05252A434EF6FF752B40A3
:102410004DF6FF752B408D8906EA05152B43CD89B6
:1024200006EA05152B4383808483CD888587028443
:1024300070BD70B5002200230024058C4EF6FF7697
:1024400035400584038C8488828B48F6FF752A40CA
:102450004FF6FF452A400D8820E00000002C014087
:102460000004004000080040000C00400010004044
:102470000014004000340140004C01400050014075
:102480000054014000180040001C004000200040A3
:102490000040014000440140004801404FF6FF76F3
:1024A00006EA05252A434DF6FF752B400D8906EAFD
:1024B00005352B434D8806EA05352B43FA4DA842D6
:1024C00002D0FA4DA84208D14BF6FF752C408D89F9
:1024D0004FF6FF7606EA85152C4384808283CD88EB
:1024E000A0F84050038470BD828B4FF2FF331A4036
:1024F0008283828B4FF6FF7303EA01231A438283A0
:102500007047F0B50C461546002200210026078CC6
:102510004EF6FF7C07EA0C070784828B018C4FF68E
:10252000FF7707EA043640F6FF473A404FF6FF7759
:1025300007EA05273A434FF6FF7707EA03373A439E
:10254000D94FB8420ED0D94FB8420BD0B0F1804F1E
:1025500008D0D74FB84205D0D64FB84202D0D64F98
:10256000B84206D14DF6FF77394046F480573943DB
:1025700005E047F6FF57394044F4805739438283DA
:102580000184F0BD828B4FF6F3731A408283828BF5
:102590000A4382837047F0B50C461546002200219D
:1025A0000026078C4FF6FF6C07EA0C070784828B26
:1025B000018C4FF6FF7707EA04264FF60C773A4076
:1025C0004FF6FF7707EA03172F433A43B64FB84257
:1025D0000ED0B64FB8420BD0B0F1804F08D0B44FF8
:1025E000B84205D0B34FB84202D0B34FB84206D17B
:1025F0004FF6FF57394046F48077394305E04FF2F4
:10260000FF57394044F48077394382830184F0BD19
:10261000028B4FF2FF331A400283028B4FF6FF7397
:1026200003EA01231A4302837047F0B50C461546AE
:10263000002200210026078C4FF6EF7C07EA0C07EA
:102640000784028B018C4FF6FF7707EA041640F6E9
:10265000FF473A404FF6FF7707EA03373A434FF612
:10266000FF7707EA05273A438F4FB8420ED08F4FC6
:10267000B8420BD0B0F1804F08D08D4FB84205D092
:102680008C4FB84202D08C4FB84206D14FF6DF775C
:10269000394046F01007394305E04FF65F7739407F
:1026A00044F01007394302830184F0BD028B4FF6DA
:1026B000F3731A400283028B0A4302837047F0B51A
:1026C0000C46154600220021068C4FF6FE773E4050
:1026D0000684028B018C4FF60C7632407E1C06EA93
:1026E00003162E433243704EB0420ED06F4EB042AE
:1026F0000BD0B0F1804F08D06D4EB04205D06D4E7A
:10270000B04202D06C4EB04206D14FF6FD76314059
:1027100044F00106314305E04FF6F576314044F0D0
:102720000106314302830184F0BD70B505460C46B5
:102730005D4885420ED05D4885420BD0B5F1804F93
:1027400008D05B48854205D05A48854202D05A4895
:10275000854200D100E000BF208850B92389A288BB
:1027600061882846FFF7ABFFE1882846FFF79EFF08
:1027700025E0208804280AD12389A2886188284678
:10278000FFF753FFE1882846FFF742FF17E0208854
:1027900008280AD12389A28861882846FFF7FBFE12
:1027A000E1882846FFF7EEFE09E02389A2886188C8
:1027B0002846FFF7A6FEE1882846FFF795FE70BD84
:1027C0002DE9F04105460C4600260127608808B92E
:1027D000022600E00026A088012801D1022700E09F
:1027E00001272088A0B92389A28861882846FFF79D
:1027F00066FFE1882846FFF759FF23893A463146AC
:102800002846FFF712FFE1882846FFF701FF13E093
:102810002389A28861882846FFF707FFE1882846B8
:10282000FFF7F6FE23893A4631462846FFF747FF71
:10283000E1882846FFF73AFFBDE8F0810A884B8817
:102840001A438B881A43CB881A430B891A434B8946
:102850001A438B891A43A0F8442070474FF6FF7142
:10286000818000210180C180418001727047002178
:10287000018041808180C180018141818181C1814C
:102880007047002101804180012181800021C180A9
:10289000018170470021018041808180C1800181D8
:1028A0004181818170470000002C014000340140CB
:1028B0000004004000080040000C004021B10288E4
:1028C00042F00102028004E002884FF6FE731A40D3
:1028D0000280704731B1B0F8442042F40042A0F8C1
:1028E000442005E0B0F84420C2F30E02A0F84420D2
:1028F00070471AB183890B43838102E083898B433C
:10290000838170478182704741EA0203A0F8483012
:1029100070471AB183890B43838102E083898B431B
:102920008381704701894FF6F87211400181704729
:102930000A46002101894FF68F7319401143018126
:10294000704730B504460D4629462046FFF7F0FF94
:10295000208940F00700208130BD2DE9F041044678
:102960000D4616461F46602D06D13B4601223146D4
:102970002046FFF75AFE05E03B460122314620463D
:10298000FFF79DFE29462046FFF7D2FF208940F041
:1029900007002081BDE8F08130B50C460021018997
:1029A000C9B24FF6FF7505EA0325154325432943B0
:1029B000018130BD2DE9F04105460E461746984687
:1029C000002443463A4631462846FFF7E5FF2C8966
:1029D0004FF6F870044044F007044FF68F7004403F
:1029E00044F070042C81BDE8F081F0B504460D463A
:1029F00016461F463B46324629462046FFF7CCFF87
:102A0000208940F480402081F0BD0185828270479A
:102A10000A46002101884FF68F7319401143018047
:102A20007047F0B50C4615461E46002100220023D3
:102A30000189028B038C4FF6F877394021434FF61A
:102A4000FC473A4040F201173A434FF6DD773B40EE
:102A50004FF6FF7707EA06172F433B4301810283B6
:102A60000384F0BD0A460021018B4FF68F73194095
:102A70001143018370470A460021018B48F6FF731A
:102A800019404FF6FF7303EA02231943018370478D
:102A90000A460021818B4FF68F73194011438183C1
:102AA00070470A460021818B48F6FF7319404FF6A4
:102AB000FF7303EA022319438183704721B102881F
:102AC00042F08002028004E002884FF67F731A40D1
:102AD0000280704721B1828842F00402828004E0C3
:102AE00082884FF6FB731A408280704721B182883A
:102AF00042F00802828004E082884FF6F7731A40A1
:102B00008280704721B1828842F00102828004E015
:102B100082884FF6FE731A40828070470A46002171
:102B2000018B4FF6F77319401143018370470A4632
:102B30000021018B4FF2FF7319404FF6FF7303EA38
:102B400002231943018370470A460021818B4FF607
:102B5000F77319401143818370470A460021818B26
:102B60004FF2FF7319404FF6FF7303EA0223194334
:102B7000818370470A460021018B4FF6FB73194091
:102B80001143018370470A460021018B4FF6FF3342
:102B900019404FF6FF7303EA02231943018370477C
:102BA0000A460021818B4FF6FB7319401143818344
:102BB00070470A460021818B4FF6FF3319404FF6CC
:102BC000FF7303EA02231943818370470A460021F9
:102BD000018B4FF67F7319401143018370470A46FA
:102BE0000021018BC1F30E014FF6FF7303EA0223AC
:102BF0001943018370470A460021818B4FF67F738A
:102C000019401143818370470A460021818BC1F32B
:102C10000E014FF6FF7303EA0223194381837047C5
:102C20000A460021018C4FF6FD73194011430184BF
:102C300070470A460021018C4FF6F7731940114383
:102C4000018470470A460021018C4FF6DF7319405A
:102C50004FF6FF7303EA02131943018470470A46D3
:102C60000021018C4FF67F7319404FF6FF7303EA82
:102C700002131943018470470A460021018C4FF664
:102C8000FF5319404FF6FF7303EA022319430184EF
:102C900070470A460021018C4FF2FF7319404FF62E
:102CA000FF7303EA02231943018470470A46002197
:102CB000018C4DF6FF7319404FF6FF7303EA0233A0
:102CC00019430184704730B5002301248C40A3B21E
:102CD000048C9C430484048C02FA01F5ADB22C43AD
:102CE000048430BD30B5002304248C40A3B2048C8E
:102CF0009C430484048C02FA01F5ADB22C43048495
:102D000030BD70B503460020002418461830012558
:102D10008D40ACB21D8CA5431D8409B1082909D191
:102D200000EB6100056825F0700505600568154336
:102D300005600EE00D1FC5F34E052844056825F417
:102D4000E045056005684FF6FF7606EA0226354342
:102D5000056070BD21B1028842F00202028004E0E9
:102D600002884FF6FD731A400280704721B1028835
:102D700042F00402028004E002884FF6FB731A401E
:102D80000280704721B1828842F08002828004E094
:102D900082884FF67F731A408280704702884FF610
:102DA000F7731A40028002880A43028070478288C3
:102DB0004FF68F731A40828082880A438280704760
:102DC00002894FF6F8731A40028102890A43028190
:102DD000704702894FF67F731A40028102890A43C5
:102DE0000281704781847047818570478186704772
:102DF0000187704781877047A0F8401070470288AC
:102E00004FF6FF431A40028002880A43028070474F
:102E10000146888E70470146088F70470146888FAB
:102E200070470146B1F8400070470146888C7047F2
:102E30000146088D704702460020138A0B400BB1F3
:102E4000012000E000207047CA430282704730B57D
:102E50000246002000230024158A05EA0103958913
:102E600005EA010413B10CB1012000E0002030BDDF
:102E7000CA43028270477047704770477047704777
:102E8000754600F029F8AE4605006946534620F025
:102E90000700854618B020B5FEF7DCFABDE82040F3
:102EA0004FF000064FF000074FF000084FF0000B06
:102EB00021F00701AC46ACE8C009ACE8C009ACE8B9
:102EC000C009ACE8C0098D4670470446AFF30080E6
:102ED0002046FDF774F9000000487047A400002068
:102EE000002F000800000020940000006C01000882
:102EF000942F000894000020740600008801000848
:102F0000000000000000000000000155550207000D
:102F10005555050601010055550506020100555598
:102F20000506030100555505060401005555050623
:102F30000501005555050606010055550506070112
:102F400000555505060801005555050609010055AF
:102F50005505060A0100555505060B010055550596
:102F6000060C0100000000000000000000A24A045E
:102F70000000000000000000010203040607080929
:102F8000000000000102030401020304060708090F
:042F90000204060829
:0400000508000131BD
:00000001FF
